{
  "abi": [
    {
      "inputs": [
        {
          "internalType": "address",
          "name": "_governance",
          "type": "address"
        }
      ],
      "payable": false,
      "stateMutability": "nonpayable",
      "type": "constructor"
    },
    {
      "constant": false,
      "inputs": [],
      "name": "acceptGovernance",
      "outputs": [],
      "payable": false,
      "stateMutability": "nonpayable",
      "type": "function"
    },
    {
      "constant": false,
      "inputs": [
        {
          "internalType": "address",
          "name": "_vault",
          "type": "address"
        }
      ],
      "name": "addDelegatedVault",
      "outputs": [],
      "payable": false,
      "stateMutability": "nonpayable",
      "type": "function"
    },
    {
      "constant": false,
      "inputs": [
        {
          "internalType": "address",
          "name": "_vault",
          "type": "address"
        }
      ],
      "name": "addVault",
      "outputs": [],
      "payable": false,
      "stateMutability": "nonpayable",
      "type": "function"
    },
    {
      "constant": false,
      "inputs": [
        {
          "internalType": "address",
          "name": "_vault",
          "type": "address"
        }
      ],
      "name": "addWrappedVault",
      "outputs": [],
      "payable": false,
      "stateMutability": "nonpayable",
      "type": "function"
    },
    {
      "constant": true,
      "inputs": [],
      "name": "getName",
      "outputs": [
        {
          "internalType": "string",
          "name": "",
          "type": "string"
        }
      ],
      "payable": false,
      "stateMutability": "pure",
      "type": "function"
    },
    {
      "constant": true,
      "inputs": [
        {
          "internalType": "uint256",
          "name": "index",
          "type": "uint256"
        }
      ],
      "name": "getVault",
      "outputs": [
        {
          "internalType": "address",
          "name": "vault",
          "type": "address"
        }
      ],
      "payable": false,
      "stateMutability": "view",
      "type": "function"
    },
    {
      "constant": true,
      "inputs": [
        {
          "internalType": "address",
          "name": "_vault",
          "type": "address"
        }
      ],
      "name": "getVaultInfo",
      "outputs": [
        {
          "internalType": "address",
          "name": "controller",
          "type": "address"
        },
        {
          "internalType": "address",
          "name": "token",
          "type": "address"
        },
        {
          "internalType": "address",
          "name": "strategy",
          "type": "address"
        },
        {
          "internalType": "bool",
          "name": "isWrapped",
          "type": "bool"
        },
        {
          "internalType": "bool",
          "name": "isDelegated",
          "type": "bool"
        }
      ],
      "payable": false,
      "stateMutability": "view",
      "type": "function"
    },
    {
      "constant": true,
      "inputs": [],
      "name": "getVaults",
      "outputs": [
        {
          "internalType": "address[]",
          "name": "",
          "type": "address[]"
        }
      ],
      "payable": false,
      "stateMutability": "view",
      "type": "function"
    },
    {
      "constant": true,
      "inputs": [],
      "name": "getVaultsInfo",
      "outputs": [
        {
          "internalType": "address[]",
          "name": "controllerArray",
          "type": "address[]"
        },
        {
          "internalType": "address[]",
          "name": "tokenArray",
          "type": "address[]"
        },
        {
          "internalType": "address[]",
          "name": "strategyArray",
          "type": "address[]"
        },
        {
          "internalType": "bool[]",
          "name": "isWrappedArray",
          "type": "bool[]"
        },
        {
          "internalType": "bool[]",
          "name": "isDelegatedArray",
          "type": "bool[]"
        }
      ],
      "payable": false,
      "stateMutability": "view",
      "type": "function"
    },
    {
      "constant": true,
      "inputs": [],
      "name": "getVaultsLength",
      "outputs": [
        {
          "internalType": "uint256",
          "name": "",
          "type": "uint256"
        }
      ],
      "payable": false,
      "stateMutability": "view",
      "type": "function"
    },
    {
      "constant": true,
      "inputs": [],
      "name": "governance",
      "outputs": [
        {
          "internalType": "address",
          "name": "",
          "type": "address"
        }
      ],
      "payable": false,
      "stateMutability": "view",
      "type": "function"
    },
    {
      "constant": true,
      "inputs": [
        {
          "internalType": "address",
          "name": "",
          "type": "address"
        }
      ],
      "name": "isDelegatedVault",
      "outputs": [
        {
          "internalType": "bool",
          "name": "",
          "type": "bool"
        }
      ],
      "payable": false,
      "stateMutability": "view",
      "type": "function"
    },
    {
      "constant": true,
      "inputs": [],
      "name": "pendingGovernance",
      "outputs": [
        {
          "internalType": "address",
          "name": "",
          "type": "address"
        }
      ],
      "payable": false,
      "stateMutability": "view",
      "type": "function"
    },
    {
      "constant": false,
      "inputs": [
        {
          "internalType": "address",
          "name": "_pendingGovernance",
          "type": "address"
        }
      ],
      "name": "setPendingGovernance",
      "outputs": [],
      "payable": false,
      "stateMutability": "nonpayable",
      "type": "function"
    }
  ],
  "bytecode": "608060405234801561001057600080fd5b506040516115233803806115238339818101604052602081101561003357600080fd5b50516001600160a01b038116610085576040805162461bcd60e51b81526020600482015260126024820152714d697373696e6720476f7665726e616e636560701b604482015290519081900360640190fd5b600080546001600160a01b039092166001600160a01b031990921691909117905561146e806100b56000396000f3fe608060405234801561001057600080fd5b50600436106100ea5760003560e01c806344d00f821161008c5780636b708788116100665780636b708788146102de57806390229af71461044e5780639403b634146104b0578063f39c38a0146104cd576100ea565b806344d00f821461023c5780635aa6e6751461029457806361de8389146102b8576100ea565b8063238efcbc116100c8578063238efcbc146101ba578063256b5a02146101c257806344064be7146101e857806344b19dfc14610222576100ea565b80630abb6035146100ef57806317d7de7c146101175780632019c75a14610194575b600080fd5b6101156004803603602081101561010557600080fd5b50356001600160a01b03166104d5565b005b61011f610540565b6040805160208082528351818301528351919283929083019185019080838360005b83811015610159578181015183820152602001610141565b50505050905090810190601f1680156101865780820380516001836020036101000a031916815260200191505b509250505060405180910390f35b610115600480360360208110156101aa57600080fd5b50356001600160a01b0316610563565b6101156105dc565b610115600480360360208110156101d857600080fd5b50356001600160a01b0316610639565b61020e600480360360208110156101fe57600080fd5b50356001600160a01b031661068b565b604080519115158252519081900360200190f35b61022a6106a0565b60408051918252519081900360200190f35b6102446106b1565b60408051602080825283518183015283519192839290830191858101910280838360005b83811015610280578181015183820152602001610268565b505050509050019250505060405180910390f35b61029c610741565b604080516001600160a01b039092168252519081900360200190f35b610115600480360360208110156102ce57600080fd5b50356001600160a01b0316610750565b6102e6610834565b60405180806020018060200180602001806020018060200186810386528b818151815260200191508051906020019060200280838360005b8381101561033657818101518382015260200161031e565b5050505090500186810385528a818151815260200191508051906020019060200280838360005b8381101561037557818101518382015260200161035d565b50505050905001868103845289818151815260200191508051906020019060200280838360005b838110156103b457818101518382015260200161039c565b50505050905001868103835288818151815260200191508051906020019060200280838360005b838110156103f35781810151838201526020016103db565b50505050905001868103825287818151815260200191508051906020019060200280838360005b8381101561043257818101518382015260200161041a565b505050509050019a505050505050505050505060405180910390f35b6104746004803603602081101561046457600080fd5b50356001600160a01b0316610a63565b604080516001600160a01b0396871681529486166020860152929094168383015215156060830152911515608082015290519081900360a00190f35b61029c600480360360208110156104c657600080fd5b5035610a86565b61029c610a9f565b6000546001600160a01b0316331461051e5760405162461bcd60e51b81526004018080602001828103825260278152602001806114136027913960400191505060405180910390fd5b600180546001600160a01b0319166001600160a01b0392909216919091179055565b60408051808201909152600981526859526567697374727960b81b602082015290565b6000546001600160a01b031633146105ac5760405162461bcd60e51b81526004018080602001828103825260278152602001806114136027913960400191505060405180910390fd5b6105b581610aae565b6105be81610b7c565b60006105c982610ba0565b5050505090506105d8816111c7565b5050565b6001546001600160a01b031633146106255760405162461bcd60e51b815260040180806020018281038252602e8152602001806113be602e913960400191505060405180910390fd5b600080546001600160a01b03191633179055565b6000546001600160a01b031633146106825760405162461bcd60e51b81526004018080602001828103825260278152602001806114136027913960400191505060405180910390fd5b6105be81610aae565b60076020526000908152604090205460ff1681565b60006106ac60026111f0565b905090565b6060806106be60026111f0565b6040519080825280602002602001820160405280156106e7578160200160208202803883390190505b50905060005b6106f760026111f0565b81101561073b5761070f60028263ffffffff6111f716565b82828151811061071b57fe5b6001600160a01b03909216602092830291909101909101526001016106ed565b50905090565b6000546001600160a01b031681565b6000546001600160a01b031633146107995760405162461bcd60e51b81526004018080602001828103825260278152602001806114136027913960400191505060405180910390fd5b6107a281610aae565b6000816001600160a01b031663fbfa77cf6040518163ffffffff1660e01b815260040160206040518083038186803b1580156107dd57600080fd5b505afa1580156107f1573d6000803e3d6000fd5b505050506040513d602081101561080757600080fd5b505190506108158282611224565b600061082083610ba0565b50505050905061082f816111c7565b505050565b606080606080606061084660026111f0565b60405190808252806020026020018201604052801561086f578160200160208202803883390190505b50945061087c60026111f0565b6040519080825280602002602001820160405280156108a5578160200160208202803883390190505b5093506108b260026111f0565b6040519080825280602002602001820160405280156108db578160200160208202803883390190505b5092506108e860026111f0565b604051908082528060200260200182016040528015610911578160200160208202803883390190505b50915061091e60026111f0565b604051908082528060200260200182016040528015610947578160200160208202803883390190505b50905060005b61095760026111f0565b811015610a5b5760008080808061097d61097860028863ffffffff6111f716565b610ba0565b94509450945094509450848b878151811061099457fe5b60200260200101906001600160a01b031690816001600160a01b031681525050838a87815181106109c157fe5b60200260200101906001600160a01b031690816001600160a01b031681525050828987815181106109ee57fe5b60200260200101906001600160a01b031690816001600160a01b03168152505081888781518110610a1b57fe5b60200260200101901515908115158152505080878781518110610a3a57fe5b9115156020928302919091019091015250506001909301925061094d915050565b509091929394565b6000806000806000610a7486610ba0565b939a9299509097509550909350915050565b6000610a9960028363ffffffff6111f716565b92915050565b6001546001600160a01b031681565b610ac0816001600160a01b03166112b5565b610b11576040805162461bcd60e51b815260206004820152601760248201527f5661756c74206973206e6f74206120636f6e7472616374000000000000000000604482015290519081900360640190fd5b610b2260028263ffffffff6112f116565b15610b6b576040805162461bcd60e51b81526020600482015260146024820152735661756c7420616c72656164792065786973747360601b604482015290519081900360640190fd5b6105d860028263ffffffff61130f16565b6001600160a01b03166000908152600760205260409020805460ff19166001179055565b6001600160a01b03808216600090815260066020526040812054909182918291161580159082908690610bea57506001600160a01b03808716600090815260066020526040902054165b6001600160a01b03811660008181526007602090815260409182902054825163f77c479160e01b8152925160ff909116955063f77c4791926004808201939291829003018186803b158015610c3e57600080fd5b505afa158015610c52573d6000803e3d6000fd5b505050506040513d6020811015610c6857600080fd5b50519550828015610cf0575060006001600160a01b0316816001600160a01b0316636f307dc36040518163ffffffff1660e01b815260040160206040518083038186803b158015610cb857600080fd5b505afa158015610ccc573d6000803e3d6000fd5b505050506040513d6020811015610ce257600080fd5b50516001600160a01b031614155b15610d6157866001600160a01b031663fc0c546a6040518163ffffffff1660e01b815260040160206040518083038186803b158015610d2e57600080fd5b505afa158015610d42573d6000803e3d6000fd5b505050506040513d6020811015610d5857600080fd5b50519450610dc9565b806001600160a01b031663fc0c546a6040518163ffffffff1660e01b815260040160206040518083038186803b158015610d9a57600080fd5b505afa158015610dae573d6000803e3d6000fd5b505050506040513d6020811015610dc457600080fd5b505194505b8115610e5857856001600160a01b03166339ebf823826040518263ffffffff1660e01b815260040180826001600160a01b03166001600160a01b0316815260200191505060206040518083038186803b158015610e2557600080fd5b505afa158015610e39573d6000803e3d6000fd5b505050506040513d6020811015610e4f57600080fd5b50519350610edd565b856001600160a01b03166339ebf823866040518263ffffffff1660e01b815260040180826001600160a01b03166001600160a01b0316815260200191505060206040518083038186803b158015610eae57600080fd5b505afa158015610ec2573d6000803e3d6000fd5b505050506040513d6020811015610ed857600080fd5b505193505b60008215610f6e57866001600160a01b031663a622ee7c866040518263ffffffff1660e01b815260040180826001600160a01b03166001600160a01b0316815260200191505060206040518083038186803b158015610f3b57600080fd5b505afa158015610f4f573d6000803e3d6000fd5b505050506040513d6020811015610f6557600080fd5b50519050610ff3565b866001600160a01b031663a622ee7c876040518263ffffffff1660e01b815260040180826001600160a01b03166001600160a01b0316815260200191505060206040518083038186803b158015610fc457600080fd5b505afa158015610fd8573d6000803e3d6000fd5b505050506040513d6020811015610fee57600080fd5b505190505b816001600160a01b0316816001600160a01b0316146110435760405162461bcd60e51b81526004018080602001828103825260278152602001806113ec6027913960400191505060405180910390fd5b8315611102576000826001600160a01b0316636f307dc36040518163ffffffff1660e01b815260040160206040518083038186803b15801561108457600080fd5b505afa158015611098573d6000803e3d6000fd5b505050506040513d60208110156110ae57600080fd5b505190506001600160a01b03808216908816146110fc5760405162461bcd60e51b81526004018080602001828103825260298152602001806113956029913960400191505060405180910390fd5b506111bc565b826111bc576000856001600160a01b0316631f1fcd516040518163ffffffff1660e01b815260040160206040518083038186803b15801561114257600080fd5b505afa158015611156573d6000803e3d6000fd5b505050506040513d602081101561116c57600080fd5b505190506001600160a01b03878116908216146111ba5760405162461bcd60e51b81526004018080602001828103825260258152602001806113706025913960400191505060405180910390fd5b505b505091939590929450565b6111d860048263ffffffff6112f116565b6111ed576105d860048263ffffffff61130f16565b50565b6001015490565b600082600101828154811061120857fe5b6000918252602090912001546001600160a01b03169392505050565b611236816001600160a01b03166112b5565b611287576040805162461bcd60e51b815260206004820152601e60248201527f577261707065645661756c74206973206e6f74206120636f6e74726163740000604482015290519081900360640190fd5b6001600160a01b03918216600090815260066020526040902080546001600160a01b03191691909216179055565b6000813f7fc5d2460186f7233c927e7db2dcc703c0e500b653ca82273b7bfad8045d85a4708181148015906112e957508115155b949350505050565b6001600160a01b031660009081526020919091526040902054151590565b600061131b83836112f1565b6113675750600182810180548083018083556000928352602080842090920180546001600160a01b0319166001600160a01b038716908117909155835290859052604090912055610a99565b506000610a9956fe537472617465677920746f6b656e206164647265737320646f6573206e6f74206d61746368577261707065645661756c7420746f6b656e206164647265737320646f6573206e6f74206d617463684f6e6c792070656e64696e67476f7665726e616e63652063616e2063616c6c20746869732066756e6374696f6e2e436f6e74726f6c6c6572207661756c74206164647265737320646f6573206e6f74206d617463684f6e6c7920676f7665726e616e63652063616e2063616c6c20746869732066756e6374696f6e2ea265627a7a723158206434ce78d405de7b8735f850f17827e4f2939668cd6ac71437038ff89b88bec764736f6c63430005110032",
  "bytecodeSha1": "926a6816e69998a855da6df709ec9a84608372bc",
  "compiler": {
    "evm_version": "istanbul",
    "optimizer": {
      "enabled": true,
      "runs": 200
    },
    "version": "0.5.17"
  },
  "contractName": "YRegistry",
  "language": "Solidity",
  "natspec": {
    "methods": {}
  },
  "opcodes": "PUSH1 0x80 PUSH1 0x40 MSTORE CALLVALUE DUP1 ISZERO PUSH2 0x10 JUMPI PUSH1 0x0 DUP1 REVERT JUMPDEST POP PUSH1 0x4 CALLDATASIZE LT PUSH2 0xEA JUMPI PUSH1 0x0 CALLDATALOAD PUSH1 0xE0 SHR DUP1 PUSH4 0x44D00F82 GT PUSH2 0x8C JUMPI DUP1 PUSH4 0x6B708788 GT PUSH2 0x66 JUMPI DUP1 PUSH4 0x6B708788 EQ PUSH2 0x2DE JUMPI DUP1 PUSH4 0x90229AF7 EQ PUSH2 0x44E JUMPI DUP1 PUSH4 0x9403B634 EQ PUSH2 0x4B0 JUMPI DUP1 PUSH4 0xF39C38A0 EQ PUSH2 0x4CD JUMPI PUSH2 0xEA JUMP JUMPDEST DUP1 PUSH4 0x44D00F82 EQ PUSH2 0x23C JUMPI DUP1 PUSH4 0x5AA6E675 EQ PUSH2 0x294 JUMPI DUP1 PUSH4 0x61DE8389 EQ PUSH2 0x2B8 JUMPI PUSH2 0xEA JUMP JUMPDEST DUP1 PUSH4 0x238EFCBC GT PUSH2 0xC8 JUMPI DUP1 PUSH4 0x238EFCBC EQ PUSH2 0x1BA JUMPI DUP1 PUSH4 0x256B5A02 EQ PUSH2 0x1C2 JUMPI DUP1 PUSH4 0x44064BE7 EQ PUSH2 0x1E8 JUMPI DUP1 PUSH4 0x44B19DFC EQ PUSH2 0x222 JUMPI PUSH2 0xEA JUMP JUMPDEST DUP1 PUSH4 0xABB6035 EQ PUSH2 0xEF JUMPI DUP1 PUSH4 0x17D7DE7C EQ PUSH2 0x117 JUMPI DUP1 PUSH4 0x2019C75A EQ PUSH2 0x194 JUMPI JUMPDEST PUSH1 0x0 DUP1 REVERT JUMPDEST PUSH2 0x115 PUSH1 0x4 DUP1 CALLDATASIZE SUB PUSH1 0x20 DUP2 LT ISZERO PUSH2 0x105 JUMPI PUSH1 0x0 DUP1 REVERT JUMPDEST POP CALLDATALOAD PUSH1 0x1 PUSH1 0x1 PUSH1 0xA0 SHL SUB AND PUSH2 0x4D5 JUMP JUMPDEST STOP JUMPDEST PUSH2 0x11F PUSH2 0x540 JUMP JUMPDEST PUSH1 0x40 DUP1 MLOAD PUSH1 0x20 DUP1 DUP3 MSTORE DUP4 MLOAD DUP2 DUP4 ADD MSTORE DUP4 MLOAD SWAP2 SWAP3 DUP4 SWAP3 SWAP1 DUP4 ADD SWAP2 DUP6 ADD SWAP1 DUP1 DUP4 DUP4 PUSH1 0x0 JUMPDEST DUP4 DUP2 LT ISZERO PUSH2 0x159 JUMPI DUP2 DUP2 ADD MLOAD DUP4 DUP3 ADD MSTORE PUSH1 0x20 ADD PUSH2 0x141 JUMP JUMPDEST POP POP POP POP SWAP1 POP SWAP1 DUP2 ADD SWAP1 PUSH1 0x1F AND DUP1 ISZERO PUSH2 0x186 JUMPI DUP1 DUP3 SUB DUP1 MLOAD PUSH1 0x1 DUP4 PUSH1 0x20 SUB PUSH2 0x100 EXP SUB NOT AND DUP2 MSTORE PUSH1 0x20 ADD SWAP2 POP JUMPDEST POP SWAP3 POP POP POP PUSH1 0x40 MLOAD DUP1 SWAP2 SUB SWAP1 RETURN JUMPDEST PUSH2 0x115 PUSH1 0x4 DUP1 CALLDATASIZE SUB PUSH1 0x20 DUP2 LT ISZERO PUSH2 0x1AA JUMPI PUSH1 0x0 DUP1 REVERT JUMPDEST POP CALLDATALOAD PUSH1 0x1 PUSH1 0x1 PUSH1 0xA0 SHL SUB AND PUSH2 0x563 JUMP JUMPDEST PUSH2 0x115 PUSH2 0x5DC JUMP JUMPDEST PUSH2 0x115 PUSH1 0x4 DUP1 CALLDATASIZE SUB PUSH1 0x20 DUP2 LT ISZERO PUSH2 0x1D8 JUMPI PUSH1 0x0 DUP1 REVERT JUMPDEST POP CALLDATALOAD PUSH1 0x1 PUSH1 0x1 PUSH1 0xA0 SHL SUB AND PUSH2 0x639 JUMP JUMPDEST PUSH2 0x20E PUSH1 0x4 DUP1 CALLDATASIZE SUB PUSH1 0x20 DUP2 LT ISZERO PUSH2 0x1FE JUMPI PUSH1 0x0 DUP1 REVERT JUMPDEST POP CALLDATALOAD PUSH1 0x1 PUSH1 0x1 PUSH1 0xA0 SHL SUB AND PUSH2 0x68B JUMP JUMPDEST PUSH1 0x40 DUP1 MLOAD SWAP2 ISZERO ISZERO DUP3 MSTORE MLOAD SWAP1 DUP2 SWAP1 SUB PUSH1 0x20 ADD SWAP1 RETURN JUMPDEST PUSH2 0x22A PUSH2 0x6A0 JUMP JUMPDEST PUSH1 0x40 DUP1 MLOAD SWAP2 DUP3 MSTORE MLOAD SWAP1 DUP2 SWAP1 SUB PUSH1 0x20 ADD SWAP1 RETURN JUMPDEST PUSH2 0x244 PUSH2 0x6B1 JUMP JUMPDEST PUSH1 0x40 DUP1 MLOAD PUSH1 0x20 DUP1 DUP3 MSTORE DUP4 MLOAD DUP2 DUP4 ADD MSTORE DUP4 MLOAD SWAP2 SWAP3 DUP4 SWAP3 SWAP1 DUP4 ADD SWAP2 DUP6 DUP2 ADD SWAP2 MUL DUP1 DUP4 DUP4 PUSH1 0x0 JUMPDEST DUP4 DUP2 LT ISZERO PUSH2 0x280 JUMPI DUP2 DUP2 ADD MLOAD DUP4 DUP3 ADD MSTORE PUSH1 0x20 ADD PUSH2 0x268 JUMP JUMPDEST POP POP POP POP SWAP1 POP ADD SWAP3 POP POP POP PUSH1 0x40 MLOAD DUP1 SWAP2 SUB SWAP1 RETURN JUMPDEST PUSH2 0x29C PUSH2 0x741 JUMP JUMPDEST PUSH1 0x40 DUP1 MLOAD PUSH1 0x1 PUSH1 0x1 PUSH1 0xA0 SHL SUB SWAP1 SWAP3 AND DUP3 MSTORE MLOAD SWAP1 DUP2 SWAP1 SUB PUSH1 0x20 ADD SWAP1 RETURN JUMPDEST PUSH2 0x115 PUSH1 0x4 DUP1 CALLDATASIZE SUB PUSH1 0x20 DUP2 LT ISZERO PUSH2 0x2CE JUMPI PUSH1 0x0 DUP1 REVERT JUMPDEST POP CALLDATALOAD PUSH1 0x1 PUSH1 0x1 PUSH1 0xA0 SHL SUB AND PUSH2 0x750 JUMP JUMPDEST PUSH2 0x2E6 PUSH2 0x834 JUMP JUMPDEST PUSH1 0x40 MLOAD DUP1 DUP1 PUSH1 0x20 ADD DUP1 PUSH1 0x20 ADD DUP1 PUSH1 0x20 ADD DUP1 PUSH1 0x20 ADD DUP1 PUSH1 0x20 ADD DUP7 DUP2 SUB DUP7 MSTORE DUP12 DUP2 DUP2 MLOAD DUP2 MSTORE PUSH1 0x20 ADD SWAP2 POP DUP1 MLOAD SWAP1 PUSH1 0x20 ADD SWAP1 PUSH1 0x20 MUL DUP1 DUP4 DUP4 PUSH1 0x0 JUMPDEST DUP4 DUP2 LT ISZERO PUSH2 0x336 JUMPI DUP2 DUP2 ADD MLOAD DUP4 DUP3 ADD MSTORE PUSH1 0x20 ADD PUSH2 0x31E JUMP JUMPDEST POP POP POP POP SWAP1 POP ADD DUP7 DUP2 SUB DUP6 MSTORE DUP11 DUP2 DUP2 MLOAD DUP2 MSTORE PUSH1 0x20 ADD SWAP2 POP DUP1 MLOAD SWAP1 PUSH1 0x20 ADD SWAP1 PUSH1 0x20 MUL DUP1 DUP4 DUP4 PUSH1 0x0 JUMPDEST DUP4 DUP2 LT ISZERO PUSH2 0x375 JUMPI DUP2 DUP2 ADD MLOAD DUP4 DUP3 ADD MSTORE PUSH1 0x20 ADD PUSH2 0x35D JUMP JUMPDEST POP POP POP POP SWAP1 POP ADD DUP7 DUP2 SUB DUP5 MSTORE DUP10 DUP2 DUP2 MLOAD DUP2 MSTORE PUSH1 0x20 ADD SWAP2 POP DUP1 MLOAD SWAP1 PUSH1 0x20 ADD SWAP1 PUSH1 0x20 MUL DUP1 DUP4 DUP4 PUSH1 0x0 JUMPDEST DUP4 DUP2 LT ISZERO PUSH2 0x3B4 JUMPI DUP2 DUP2 ADD MLOAD DUP4 DUP3 ADD MSTORE PUSH1 0x20 ADD PUSH2 0x39C JUMP JUMPDEST POP POP POP POP SWAP1 POP ADD DUP7 DUP2 SUB DUP4 MSTORE DUP9 DUP2 DUP2 MLOAD DUP2 MSTORE PUSH1 0x20 ADD SWAP2 POP DUP1 MLOAD SWAP1 PUSH1 0x20 ADD SWAP1 PUSH1 0x20 MUL DUP1 DUP4 DUP4 PUSH1 0x0 JUMPDEST DUP4 DUP2 LT ISZERO PUSH2 0x3F3 JUMPI DUP2 DUP2 ADD MLOAD DUP4 DUP3 ADD MSTORE PUSH1 0x20 ADD PUSH2 0x3DB JUMP JUMPDEST POP POP POP POP SWAP1 POP ADD DUP7 DUP2 SUB DUP3 MSTORE DUP8 DUP2 DUP2 MLOAD DUP2 MSTORE PUSH1 0x20 ADD SWAP2 POP DUP1 MLOAD SWAP1 PUSH1 0x20 ADD SWAP1 PUSH1 0x20 MUL DUP1 DUP4 DUP4 PUSH1 0x0 JUMPDEST DUP4 DUP2 LT ISZERO PUSH2 0x432 JUMPI DUP2 DUP2 ADD MLOAD DUP4 DUP3 ADD MSTORE PUSH1 0x20 ADD PUSH2 0x41A JUMP JUMPDEST POP POP POP POP SWAP1 POP ADD SWAP11 POP POP POP POP POP POP POP POP POP POP POP PUSH1 0x40 MLOAD DUP1 SWAP2 SUB SWAP1 RETURN JUMPDEST PUSH2 0x474 PUSH1 0x4 DUP1 CALLDATASIZE SUB PUSH1 0x20 DUP2 LT ISZERO PUSH2 0x464 JUMPI PUSH1 0x0 DUP1 REVERT JUMPDEST POP CALLDATALOAD PUSH1 0x1 PUSH1 0x1 PUSH1 0xA0 SHL SUB AND PUSH2 0xA63 JUMP JUMPDEST PUSH1 0x40 DUP1 MLOAD PUSH1 0x1 PUSH1 0x1 PUSH1 0xA0 SHL SUB SWAP7 DUP8 AND DUP2 MSTORE SWAP5 DUP7 AND PUSH1 0x20 DUP7 ADD MSTORE SWAP3 SWAP1 SWAP5 AND DUP4 DUP4 ADD MSTORE ISZERO ISZERO PUSH1 0x60 DUP4 ADD MSTORE SWAP2 ISZERO ISZERO PUSH1 0x80 DUP3 ADD MSTORE SWAP1 MLOAD SWAP1 DUP2 SWAP1 SUB PUSH1 0xA0 ADD SWAP1 RETURN JUMPDEST PUSH2 0x29C PUSH1 0x4 DUP1 CALLDATASIZE SUB PUSH1 0x20 DUP2 LT ISZERO PUSH2 0x4C6 JUMPI PUSH1 0x0 DUP1 REVERT JUMPDEST POP CALLDATALOAD PUSH2 0xA86 JUMP JUMPDEST PUSH2 0x29C PUSH2 0xA9F JUMP JUMPDEST PUSH1 0x0 SLOAD PUSH1 0x1 PUSH1 0x1 PUSH1 0xA0 SHL SUB AND CALLER EQ PUSH2 0x51E JUMPI PUSH1 0x40 MLOAD PUSH3 0x461BCD PUSH1 0xE5 SHL DUP2 MSTORE PUSH1 0x4 ADD DUP1 DUP1 PUSH1 0x20 ADD DUP3 DUP2 SUB DUP3 MSTORE PUSH1 0x27 DUP2 MSTORE PUSH1 0x20 ADD DUP1 PUSH2 0x1413 PUSH1 0x27 SWAP2 CODECOPY PUSH1 0x40 ADD SWAP2 POP POP PUSH1 0x40 MLOAD DUP1 SWAP2 SUB SWAP1 REVERT JUMPDEST PUSH1 0x1 DUP1 SLOAD PUSH1 0x1 PUSH1 0x1 PUSH1 0xA0 SHL SUB NOT AND PUSH1 0x1 PUSH1 0x1 PUSH1 0xA0 SHL SUB SWAP3 SWAP1 SWAP3 AND SWAP2 SWAP1 SWAP2 OR SWAP1 SSTORE JUMP JUMPDEST PUSH1 0x40 DUP1 MLOAD DUP1 DUP3 ADD SWAP1 SWAP2 MSTORE PUSH1 0x9 DUP2 MSTORE PUSH9 0x595265676973747279 PUSH1 0xB8 SHL PUSH1 0x20 DUP3 ADD MSTORE SWAP1 JUMP JUMPDEST PUSH1 0x0 SLOAD PUSH1 0x1 PUSH1 0x1 PUSH1 0xA0 SHL SUB AND CALLER EQ PUSH2 0x5AC JUMPI PUSH1 0x40 MLOAD PUSH3 0x461BCD PUSH1 0xE5 SHL DUP2 MSTORE PUSH1 0x4 ADD DUP1 DUP1 PUSH1 0x20 ADD DUP3 DUP2 SUB DUP3 MSTORE PUSH1 0x27 DUP2 MSTORE PUSH1 0x20 ADD DUP1 PUSH2 0x1413 PUSH1 0x27 SWAP2 CODECOPY PUSH1 0x40 ADD SWAP2 POP POP PUSH1 0x40 MLOAD DUP1 SWAP2 SUB SWAP1 REVERT JUMPDEST PUSH2 0x5B5 DUP2 PUSH2 0xAAE JUMP JUMPDEST PUSH2 0x5BE DUP2 PUSH2 0xB7C JUMP JUMPDEST PUSH1 0x0 PUSH2 0x5C9 DUP3 PUSH2 0xBA0 JUMP JUMPDEST POP POP POP POP SWAP1 POP PUSH2 0x5D8 DUP2 PUSH2 0x11C7 JUMP JUMPDEST POP POP JUMP JUMPDEST PUSH1 0x1 SLOAD PUSH1 0x1 PUSH1 0x1 PUSH1 0xA0 SHL SUB AND CALLER EQ PUSH2 0x625 JUMPI PUSH1 0x40 MLOAD PUSH3 0x461BCD PUSH1 0xE5 SHL DUP2 MSTORE PUSH1 0x4 ADD DUP1 DUP1 PUSH1 0x20 ADD DUP3 DUP2 SUB DUP3 MSTORE PUSH1 0x2E DUP2 MSTORE PUSH1 0x20 ADD DUP1 PUSH2 0x13BE PUSH1 0x2E SWAP2 CODECOPY PUSH1 0x40 ADD SWAP2 POP POP PUSH1 0x40 MLOAD DUP1 SWAP2 SUB SWAP1 REVERT JUMPDEST PUSH1 0x0 DUP1 SLOAD PUSH1 0x1 PUSH1 0x1 PUSH1 0xA0 SHL SUB NOT AND CALLER OR SWAP1 SSTORE JUMP JUMPDEST PUSH1 0x0 SLOAD PUSH1 0x1 PUSH1 0x1 PUSH1 0xA0 SHL SUB AND CALLER EQ PUSH2 0x682 JUMPI PUSH1 0x40 MLOAD PUSH3 0x461BCD PUSH1 0xE5 SHL DUP2 MSTORE PUSH1 0x4 ADD DUP1 DUP1 PUSH1 0x20 ADD DUP3 DUP2 SUB DUP3 MSTORE PUSH1 0x27 DUP2 MSTORE PUSH1 0x20 ADD DUP1 PUSH2 0x1413 PUSH1 0x27 SWAP2 CODECOPY PUSH1 0x40 ADD SWAP2 POP POP PUSH1 0x40 MLOAD DUP1 SWAP2 SUB SWAP1 REVERT JUMPDEST PUSH2 0x5BE DUP2 PUSH2 0xAAE JUMP JUMPDEST PUSH1 0x7 PUSH1 0x20 MSTORE PUSH1 0x0 SWAP1 DUP2 MSTORE PUSH1 0x40 SWAP1 KECCAK256 SLOAD PUSH1 0xFF AND DUP2 JUMP JUMPDEST PUSH1 0x0 PUSH2 0x6AC PUSH1 0x2 PUSH2 0x11F0 JUMP JUMPDEST SWAP1 POP SWAP1 JUMP JUMPDEST PUSH1 0x60 DUP1 PUSH2 0x6BE PUSH1 0x2 PUSH2 0x11F0 JUMP JUMPDEST PUSH1 0x40 MLOAD SWAP1 DUP1 DUP3 MSTORE DUP1 PUSH1 0x20 MUL PUSH1 0x20 ADD DUP3 ADD PUSH1 0x40 MSTORE DUP1 ISZERO PUSH2 0x6E7 JUMPI DUP2 PUSH1 0x20 ADD PUSH1 0x20 DUP3 MUL DUP1 CODESIZE DUP4 CODECOPY ADD SWAP1 POP JUMPDEST POP SWAP1 POP PUSH1 0x0 JUMPDEST PUSH2 0x6F7 PUSH1 0x2 PUSH2 0x11F0 JUMP JUMPDEST DUP2 LT ISZERO PUSH2 0x73B JUMPI PUSH2 0x70F PUSH1 0x2 DUP3 PUSH4 0xFFFFFFFF PUSH2 0x11F7 AND JUMP JUMPDEST DUP3 DUP3 DUP2 MLOAD DUP2 LT PUSH2 0x71B JUMPI INVALID JUMPDEST PUSH1 0x1 PUSH1 0x1 PUSH1 0xA0 SHL SUB SWAP1 SWAP3 AND PUSH1 0x20 SWAP3 DUP4 MUL SWAP2 SWAP1 SWAP2 ADD SWAP1 SWAP2 ADD MSTORE PUSH1 0x1 ADD PUSH2 0x6ED JUMP JUMPDEST POP SWAP1 POP SWAP1 JUMP JUMPDEST PUSH1 0x0 SLOAD PUSH1 0x1 PUSH1 0x1 PUSH1 0xA0 SHL SUB AND DUP2 JUMP JUMPDEST PUSH1 0x0 SLOAD PUSH1 0x1 PUSH1 0x1 PUSH1 0xA0 SHL SUB AND CALLER EQ PUSH2 0x799 JUMPI PUSH1 0x40 MLOAD PUSH3 0x461BCD PUSH1 0xE5 SHL DUP2 MSTORE PUSH1 0x4 ADD DUP1 DUP1 PUSH1 0x20 ADD DUP3 DUP2 SUB DUP3 MSTORE PUSH1 0x27 DUP2 MSTORE PUSH1 0x20 ADD DUP1 PUSH2 0x1413 PUSH1 0x27 SWAP2 CODECOPY PUSH1 0x40 ADD SWAP2 POP POP PUSH1 0x40 MLOAD DUP1 SWAP2 SUB SWAP1 REVERT JUMPDEST PUSH2 0x7A2 DUP2 PUSH2 0xAAE JUMP JUMPDEST PUSH1 0x0 DUP2 PUSH1 0x1 PUSH1 0x1 PUSH1 0xA0 SHL SUB AND PUSH4 0xFBFA77CF PUSH1 0x40 MLOAD DUP2 PUSH4 0xFFFFFFFF AND PUSH1 0xE0 SHL DUP2 MSTORE PUSH1 0x4 ADD PUSH1 0x20 PUSH1 0x40 MLOAD DUP1 DUP4 SUB DUP2 DUP7 DUP1 EXTCODESIZE ISZERO DUP1 ISZERO PUSH2 0x7DD JUMPI PUSH1 0x0 DUP1 REVERT JUMPDEST POP GAS STATICCALL ISZERO DUP1 ISZERO PUSH2 0x7F1 JUMPI RETURNDATASIZE PUSH1 0x0 DUP1 RETURNDATACOPY RETURNDATASIZE PUSH1 0x0 REVERT JUMPDEST POP POP POP POP PUSH1 0x40 MLOAD RETURNDATASIZE PUSH1 0x20 DUP2 LT ISZERO PUSH2 0x807 JUMPI PUSH1 0x0 DUP1 REVERT JUMPDEST POP MLOAD SWAP1 POP PUSH2 0x815 DUP3 DUP3 PUSH2 0x1224 JUMP JUMPDEST PUSH1 0x0 PUSH2 0x820 DUP4 PUSH2 0xBA0 JUMP JUMPDEST POP POP POP POP SWAP1 POP PUSH2 0x82F DUP2 PUSH2 0x11C7 JUMP JUMPDEST POP POP POP JUMP JUMPDEST PUSH1 0x60 DUP1 PUSH1 0x60 DUP1 PUSH1 0x60 PUSH2 0x846 PUSH1 0x2 PUSH2 0x11F0 JUMP JUMPDEST PUSH1 0x40 MLOAD SWAP1 DUP1 DUP3 MSTORE DUP1 PUSH1 0x20 MUL PUSH1 0x20 ADD DUP3 ADD PUSH1 0x40 MSTORE DUP1 ISZERO PUSH2 0x86F JUMPI DUP2 PUSH1 0x20 ADD PUSH1 0x20 DUP3 MUL DUP1 CODESIZE DUP4 CODECOPY ADD SWAP1 POP JUMPDEST POP SWAP5 POP PUSH2 0x87C PUSH1 0x2 PUSH2 0x11F0 JUMP JUMPDEST PUSH1 0x40 MLOAD SWAP1 DUP1 DUP3 MSTORE DUP1 PUSH1 0x20 MUL PUSH1 0x20 ADD DUP3 ADD PUSH1 0x40 MSTORE DUP1 ISZERO PUSH2 0x8A5 JUMPI DUP2 PUSH1 0x20 ADD PUSH1 0x20 DUP3 MUL DUP1 CODESIZE DUP4 CODECOPY ADD SWAP1 POP JUMPDEST POP SWAP4 POP PUSH2 0x8B2 PUSH1 0x2 PUSH2 0x11F0 JUMP JUMPDEST PUSH1 0x40 MLOAD SWAP1 DUP1 DUP3 MSTORE DUP1 PUSH1 0x20 MUL PUSH1 0x20 ADD DUP3 ADD PUSH1 0x40 MSTORE DUP1 ISZERO PUSH2 0x8DB JUMPI DUP2 PUSH1 0x20 ADD PUSH1 0x20 DUP3 MUL DUP1 CODESIZE DUP4 CODECOPY ADD SWAP1 POP JUMPDEST POP SWAP3 POP PUSH2 0x8E8 PUSH1 0x2 PUSH2 0x11F0 JUMP JUMPDEST PUSH1 0x40 MLOAD SWAP1 DUP1 DUP3 MSTORE DUP1 PUSH1 0x20 MUL PUSH1 0x20 ADD DUP3 ADD PUSH1 0x40 MSTORE DUP1 ISZERO PUSH2 0x911 JUMPI DUP2 PUSH1 0x20 ADD PUSH1 0x20 DUP3 MUL DUP1 CODESIZE DUP4 CODECOPY ADD SWAP1 POP JUMPDEST POP SWAP2 POP PUSH2 0x91E PUSH1 0x2 PUSH2 0x11F0 JUMP JUMPDEST PUSH1 0x40 MLOAD SWAP1 DUP1 DUP3 MSTORE DUP1 PUSH1 0x20 MUL PUSH1 0x20 ADD DUP3 ADD PUSH1 0x40 MSTORE DUP1 ISZERO PUSH2 0x947 JUMPI DUP2 PUSH1 0x20 ADD PUSH1 0x20 DUP3 MUL DUP1 CODESIZE DUP4 CODECOPY ADD SWAP1 POP JUMPDEST POP SWAP1 POP PUSH1 0x0 JUMPDEST PUSH2 0x957 PUSH1 0x2 PUSH2 0x11F0 JUMP JUMPDEST DUP2 LT ISZERO PUSH2 0xA5B JUMPI PUSH1 0x0 DUP1 DUP1 DUP1 DUP1 PUSH2 0x97D PUSH2 0x978 PUSH1 0x2 DUP9 PUSH4 0xFFFFFFFF PUSH2 0x11F7 AND JUMP JUMPDEST PUSH2 0xBA0 JUMP JUMPDEST SWAP5 POP SWAP5 POP SWAP5 POP SWAP5 POP SWAP5 POP DUP5 DUP12 DUP8 DUP2 MLOAD DUP2 LT PUSH2 0x994 JUMPI INVALID JUMPDEST PUSH1 0x20 MUL PUSH1 0x20 ADD ADD SWAP1 PUSH1 0x1 PUSH1 0x1 PUSH1 0xA0 SHL SUB AND SWAP1 DUP2 PUSH1 0x1 PUSH1 0x1 PUSH1 0xA0 SHL SUB AND DUP2 MSTORE POP POP DUP4 DUP11 DUP8 DUP2 MLOAD DUP2 LT PUSH2 0x9C1 JUMPI INVALID JUMPDEST PUSH1 0x20 MUL PUSH1 0x20 ADD ADD SWAP1 PUSH1 0x1 PUSH1 0x1 PUSH1 0xA0 SHL SUB AND SWAP1 DUP2 PUSH1 0x1 PUSH1 0x1 PUSH1 0xA0 SHL SUB AND DUP2 MSTORE POP POP DUP3 DUP10 DUP8 DUP2 MLOAD DUP2 LT PUSH2 0x9EE JUMPI INVALID JUMPDEST PUSH1 0x20 MUL PUSH1 0x20 ADD ADD SWAP1 PUSH1 0x1 PUSH1 0x1 PUSH1 0xA0 SHL SUB AND SWAP1 DUP2 PUSH1 0x1 PUSH1 0x1 PUSH1 0xA0 SHL SUB AND DUP2 MSTORE POP POP DUP2 DUP9 DUP8 DUP2 MLOAD DUP2 LT PUSH2 0xA1B JUMPI INVALID JUMPDEST PUSH1 0x20 MUL PUSH1 0x20 ADD ADD SWAP1 ISZERO ISZERO SWAP1 DUP2 ISZERO ISZERO DUP2 MSTORE POP POP DUP1 DUP8 DUP8 DUP2 MLOAD DUP2 LT PUSH2 0xA3A JUMPI INVALID JUMPDEST SWAP2 ISZERO ISZERO PUSH1 0x20 SWAP3 DUP4 MUL SWAP2 SWAP1 SWAP2 ADD SWAP1 SWAP2 ADD MSTORE POP POP PUSH1 0x1 SWAP1 SWAP4 ADD SWAP3 POP PUSH2 0x94D SWAP2 POP POP JUMP JUMPDEST POP SWAP1 SWAP2 SWAP3 SWAP4 SWAP5 JUMP JUMPDEST PUSH1 0x0 DUP1 PUSH1 0x0 DUP1 PUSH1 0x0 PUSH2 0xA74 DUP7 PUSH2 0xBA0 JUMP JUMPDEST SWAP4 SWAP11 SWAP3 SWAP10 POP SWAP1 SWAP8 POP SWAP6 POP SWAP1 SWAP4 POP SWAP2 POP POP JUMP JUMPDEST PUSH1 0x0 PUSH2 0xA99 PUSH1 0x2 DUP4 PUSH4 0xFFFFFFFF PUSH2 0x11F7 AND JUMP JUMPDEST SWAP3 SWAP2 POP POP JUMP JUMPDEST PUSH1 0x1 SLOAD PUSH1 0x1 PUSH1 0x1 PUSH1 0xA0 SHL SUB AND DUP2 JUMP JUMPDEST PUSH2 0xAC0 DUP2 PUSH1 0x1 PUSH1 0x1 PUSH1 0xA0 SHL SUB AND PUSH2 0x12B5 JUMP JUMPDEST PUSH2 0xB11 JUMPI PUSH1 0x40 DUP1 MLOAD PUSH3 0x461BCD PUSH1 0xE5 SHL DUP2 MSTORE PUSH1 0x20 PUSH1 0x4 DUP3 ADD MSTORE PUSH1 0x17 PUSH1 0x24 DUP3 ADD MSTORE PUSH32 0x5661756C74206973206E6F74206120636F6E7472616374000000000000000000 PUSH1 0x44 DUP3 ADD MSTORE SWAP1 MLOAD SWAP1 DUP2 SWAP1 SUB PUSH1 0x64 ADD SWAP1 REVERT JUMPDEST PUSH2 0xB22 PUSH1 0x2 DUP3 PUSH4 0xFFFFFFFF PUSH2 0x12F1 AND JUMP JUMPDEST ISZERO PUSH2 0xB6B JUMPI PUSH1 0x40 DUP1 MLOAD PUSH3 0x461BCD PUSH1 0xE5 SHL DUP2 MSTORE PUSH1 0x20 PUSH1 0x4 DUP3 ADD MSTORE PUSH1 0x14 PUSH1 0x24 DUP3 ADD MSTORE PUSH20 0x5661756C7420616C726561647920657869737473 PUSH1 0x60 SHL PUSH1 0x44 DUP3 ADD MSTORE SWAP1 MLOAD SWAP1 DUP2 SWAP1 SUB PUSH1 0x64 ADD SWAP1 REVERT JUMPDEST PUSH2 0x5D8 PUSH1 0x2 DUP3 PUSH4 0xFFFFFFFF PUSH2 0x130F AND JUMP JUMPDEST PUSH1 0x1 PUSH1 0x1 PUSH1 0xA0 SHL SUB AND PUSH1 0x0 SWAP1 DUP2 MSTORE PUSH1 0x7 PUSH1 0x20 MSTORE PUSH1 0x40 SWAP1 KECCAK256 DUP1 SLOAD PUSH1 0xFF NOT AND PUSH1 0x1 OR SWAP1 SSTORE JUMP JUMPDEST PUSH1 0x1 PUSH1 0x1 PUSH1 0xA0 SHL SUB DUP1 DUP3 AND PUSH1 0x0 SWAP1 DUP2 MSTORE PUSH1 0x6 PUSH1 0x20 MSTORE PUSH1 0x40 DUP2 KECCAK256 SLOAD SWAP1 SWAP2 DUP3 SWAP2 DUP3 SWAP2 AND ISZERO DUP1 ISZERO SWAP1 DUP3 SWAP1 DUP7 SWAP1 PUSH2 0xBEA JUMPI POP PUSH1 0x1 PUSH1 0x1 PUSH1 0xA0 SHL SUB DUP1 DUP8 AND PUSH1 0x0 SWAP1 DUP2 MSTORE PUSH1 0x6 PUSH1 0x20 MSTORE PUSH1 0x40 SWAP1 KECCAK256 SLOAD AND JUMPDEST PUSH1 0x1 PUSH1 0x1 PUSH1 0xA0 SHL SUB DUP2 AND PUSH1 0x0 DUP2 DUP2 MSTORE PUSH1 0x7 PUSH1 0x20 SWAP1 DUP2 MSTORE PUSH1 0x40 SWAP2 DUP3 SWAP1 KECCAK256 SLOAD DUP3 MLOAD PUSH4 0xF77C4791 PUSH1 0xE0 SHL DUP2 MSTORE SWAP3 MLOAD PUSH1 0xFF SWAP1 SWAP2 AND SWAP6 POP PUSH4 0xF77C4791 SWAP3 PUSH1 0x4 DUP1 DUP3 ADD SWAP4 SWAP3 SWAP2 DUP3 SWAP1 SUB ADD DUP2 DUP7 DUP1 EXTCODESIZE ISZERO DUP1 ISZERO PUSH2 0xC3E JUMPI PUSH1 0x0 DUP1 REVERT JUMPDEST POP GAS STATICCALL ISZERO DUP1 ISZERO PUSH2 0xC52 JUMPI RETURNDATASIZE PUSH1 0x0 DUP1 RETURNDATACOPY RETURNDATASIZE PUSH1 0x0 REVERT JUMPDEST POP POP POP POP PUSH1 0x40 MLOAD RETURNDATASIZE PUSH1 0x20 DUP2 LT ISZERO PUSH2 0xC68 JUMPI PUSH1 0x0 DUP1 REVERT JUMPDEST POP MLOAD SWAP6 POP DUP3 DUP1 ISZERO PUSH2 0xCF0 JUMPI POP PUSH1 0x0 PUSH1 0x1 PUSH1 0x1 PUSH1 0xA0 SHL SUB AND DUP2 PUSH1 0x1 PUSH1 0x1 PUSH1 0xA0 SHL SUB AND PUSH4 0x6F307DC3 PUSH1 0x40 MLOAD DUP2 PUSH4 0xFFFFFFFF AND PUSH1 0xE0 SHL DUP2 MSTORE PUSH1 0x4 ADD PUSH1 0x20 PUSH1 0x40 MLOAD DUP1 DUP4 SUB DUP2 DUP7 DUP1 EXTCODESIZE ISZERO DUP1 ISZERO PUSH2 0xCB8 JUMPI PUSH1 0x0 DUP1 REVERT JUMPDEST POP GAS STATICCALL ISZERO DUP1 ISZERO PUSH2 0xCCC JUMPI RETURNDATASIZE PUSH1 0x0 DUP1 RETURNDATACOPY RETURNDATASIZE PUSH1 0x0 REVERT JUMPDEST POP POP POP POP PUSH1 0x40 MLOAD RETURNDATASIZE PUSH1 0x20 DUP2 LT ISZERO PUSH2 0xCE2 JUMPI PUSH1 0x0 DUP1 REVERT JUMPDEST POP MLOAD PUSH1 0x1 PUSH1 0x1 PUSH1 0xA0 SHL SUB AND EQ ISZERO JUMPDEST ISZERO PUSH2 0xD61 JUMPI DUP7 PUSH1 0x1 PUSH1 0x1 PUSH1 0xA0 SHL SUB AND PUSH4 0xFC0C546A PUSH1 0x40 MLOAD DUP2 PUSH4 0xFFFFFFFF AND PUSH1 0xE0 SHL DUP2 MSTORE PUSH1 0x4 ADD PUSH1 0x20 PUSH1 0x40 MLOAD DUP1 DUP4 SUB DUP2 DUP7 DUP1 EXTCODESIZE ISZERO DUP1 ISZERO PUSH2 0xD2E JUMPI PUSH1 0x0 DUP1 REVERT JUMPDEST POP GAS STATICCALL ISZERO DUP1 ISZERO PUSH2 0xD42 JUMPI RETURNDATASIZE PUSH1 0x0 DUP1 RETURNDATACOPY RETURNDATASIZE PUSH1 0x0 REVERT JUMPDEST POP POP POP POP PUSH1 0x40 MLOAD RETURNDATASIZE PUSH1 0x20 DUP2 LT ISZERO PUSH2 0xD58 JUMPI PUSH1 0x0 DUP1 REVERT JUMPDEST POP MLOAD SWAP5 POP PUSH2 0xDC9 JUMP JUMPDEST DUP1 PUSH1 0x1 PUSH1 0x1 PUSH1 0xA0 SHL SUB AND PUSH4 0xFC0C546A PUSH1 0x40 MLOAD DUP2 PUSH4 0xFFFFFFFF AND PUSH1 0xE0 SHL DUP2 MSTORE PUSH1 0x4 ADD PUSH1 0x20 PUSH1 0x40 MLOAD DUP1 DUP4 SUB DUP2 DUP7 DUP1 EXTCODESIZE ISZERO DUP1 ISZERO PUSH2 0xD9A JUMPI PUSH1 0x0 DUP1 REVERT JUMPDEST POP GAS STATICCALL ISZERO DUP1 ISZERO PUSH2 0xDAE JUMPI RETURNDATASIZE PUSH1 0x0 DUP1 RETURNDATACOPY RETURNDATASIZE PUSH1 0x0 REVERT JUMPDEST POP POP POP POP PUSH1 0x40 MLOAD RETURNDATASIZE PUSH1 0x20 DUP2 LT ISZERO PUSH2 0xDC4 JUMPI PUSH1 0x0 DUP1 REVERT JUMPDEST POP MLOAD SWAP5 POP JUMPDEST DUP2 ISZERO PUSH2 0xE58 JUMPI DUP6 PUSH1 0x1 PUSH1 0x1 PUSH1 0xA0 SHL SUB AND PUSH4 0x39EBF823 DUP3 PUSH1 0x40 MLOAD DUP3 PUSH4 0xFFFFFFFF AND PUSH1 0xE0 SHL DUP2 MSTORE PUSH1 0x4 ADD DUP1 DUP3 PUSH1 0x1 PUSH1 0x1 PUSH1 0xA0 SHL SUB AND PUSH1 0x1 PUSH1 0x1 PUSH1 0xA0 SHL SUB AND DUP2 MSTORE PUSH1 0x20 ADD SWAP2 POP POP PUSH1 0x20 PUSH1 0x40 MLOAD DUP1 DUP4 SUB DUP2 DUP7 DUP1 EXTCODESIZE ISZERO DUP1 ISZERO PUSH2 0xE25 JUMPI PUSH1 0x0 DUP1 REVERT JUMPDEST POP GAS STATICCALL ISZERO DUP1 ISZERO PUSH2 0xE39 JUMPI RETURNDATASIZE PUSH1 0x0 DUP1 RETURNDATACOPY RETURNDATASIZE PUSH1 0x0 REVERT JUMPDEST POP POP POP POP PUSH1 0x40 MLOAD RETURNDATASIZE PUSH1 0x20 DUP2 LT ISZERO PUSH2 0xE4F JUMPI PUSH1 0x0 DUP1 REVERT JUMPDEST POP MLOAD SWAP4 POP PUSH2 0xEDD JUMP JUMPDEST DUP6 PUSH1 0x1 PUSH1 0x1 PUSH1 0xA0 SHL SUB AND PUSH4 0x39EBF823 DUP7 PUSH1 0x40 MLOAD DUP3 PUSH4 0xFFFFFFFF AND PUSH1 0xE0 SHL DUP2 MSTORE PUSH1 0x4 ADD DUP1 DUP3 PUSH1 0x1 PUSH1 0x1 PUSH1 0xA0 SHL SUB AND PUSH1 0x1 PUSH1 0x1 PUSH1 0xA0 SHL SUB AND DUP2 MSTORE PUSH1 0x20 ADD SWAP2 POP POP PUSH1 0x20 PUSH1 0x40 MLOAD DUP1 DUP4 SUB DUP2 DUP7 DUP1 EXTCODESIZE ISZERO DUP1 ISZERO PUSH2 0xEAE JUMPI PUSH1 0x0 DUP1 REVERT JUMPDEST POP GAS STATICCALL ISZERO DUP1 ISZERO PUSH2 0xEC2 JUMPI RETURNDATASIZE PUSH1 0x0 DUP1 RETURNDATACOPY RETURNDATASIZE PUSH1 0x0 REVERT JUMPDEST POP POP POP POP PUSH1 0x40 MLOAD RETURNDATASIZE PUSH1 0x20 DUP2 LT ISZERO PUSH2 0xED8 JUMPI PUSH1 0x0 DUP1 REVERT JUMPDEST POP MLOAD SWAP4 POP JUMPDEST PUSH1 0x0 DUP3 ISZERO PUSH2 0xF6E JUMPI DUP7 PUSH1 0x1 PUSH1 0x1 PUSH1 0xA0 SHL SUB AND PUSH4 0xA622EE7C DUP7 PUSH1 0x40 MLOAD DUP3 PUSH4 0xFFFFFFFF AND PUSH1 0xE0 SHL DUP2 MSTORE PUSH1 0x4 ADD DUP1 DUP3 PUSH1 0x1 PUSH1 0x1 PUSH1 0xA0 SHL SUB AND PUSH1 0x1 PUSH1 0x1 PUSH1 0xA0 SHL SUB AND DUP2 MSTORE PUSH1 0x20 ADD SWAP2 POP POP PUSH1 0x20 PUSH1 0x40 MLOAD DUP1 DUP4 SUB DUP2 DUP7 DUP1 EXTCODESIZE ISZERO DUP1 ISZERO PUSH2 0xF3B JUMPI PUSH1 0x0 DUP1 REVERT JUMPDEST POP GAS STATICCALL ISZERO DUP1 ISZERO PUSH2 0xF4F JUMPI RETURNDATASIZE PUSH1 0x0 DUP1 RETURNDATACOPY RETURNDATASIZE PUSH1 0x0 REVERT JUMPDEST POP POP POP POP PUSH1 0x40 MLOAD RETURNDATASIZE PUSH1 0x20 DUP2 LT ISZERO PUSH2 0xF65 JUMPI PUSH1 0x0 DUP1 REVERT JUMPDEST POP MLOAD SWAP1 POP PUSH2 0xFF3 JUMP JUMPDEST DUP7 PUSH1 0x1 PUSH1 0x1 PUSH1 0xA0 SHL SUB AND PUSH4 0xA622EE7C DUP8 PUSH1 0x40 MLOAD DUP3 PUSH4 0xFFFFFFFF AND PUSH1 0xE0 SHL DUP2 MSTORE PUSH1 0x4 ADD DUP1 DUP3 PUSH1 0x1 PUSH1 0x1 PUSH1 0xA0 SHL SUB AND PUSH1 0x1 PUSH1 0x1 PUSH1 0xA0 SHL SUB AND DUP2 MSTORE PUSH1 0x20 ADD SWAP2 POP POP PUSH1 0x20 PUSH1 0x40 MLOAD DUP1 DUP4 SUB DUP2 DUP7 DUP1 EXTCODESIZE ISZERO DUP1 ISZERO PUSH2 0xFC4 JUMPI PUSH1 0x0 DUP1 REVERT JUMPDEST POP GAS STATICCALL ISZERO DUP1 ISZERO PUSH2 0xFD8 JUMPI RETURNDATASIZE PUSH1 0x0 DUP1 RETURNDATACOPY RETURNDATASIZE PUSH1 0x0 REVERT JUMPDEST POP POP POP POP PUSH1 0x40 MLOAD RETURNDATASIZE PUSH1 0x20 DUP2 LT ISZERO PUSH2 0xFEE JUMPI PUSH1 0x0 DUP1 REVERT JUMPDEST POP MLOAD SWAP1 POP JUMPDEST DUP2 PUSH1 0x1 PUSH1 0x1 PUSH1 0xA0 SHL SUB AND DUP2 PUSH1 0x1 PUSH1 0x1 PUSH1 0xA0 SHL SUB AND EQ PUSH2 0x1043 JUMPI PUSH1 0x40 MLOAD PUSH3 0x461BCD PUSH1 0xE5 SHL DUP2 MSTORE PUSH1 0x4 ADD DUP1 DUP1 PUSH1 0x20 ADD DUP3 DUP2 SUB DUP3 MSTORE PUSH1 0x27 DUP2 MSTORE PUSH1 0x20 ADD DUP1 PUSH2 0x13EC PUSH1 0x27 SWAP2 CODECOPY PUSH1 0x40 ADD SWAP2 POP POP PUSH1 0x40 MLOAD DUP1 SWAP2 SUB SWAP1 REVERT JUMPDEST DUP4 ISZERO PUSH2 0x1102 JUMPI PUSH1 0x0 DUP3 PUSH1 0x1 PUSH1 0x1 PUSH1 0xA0 SHL SUB AND PUSH4 0x6F307DC3 PUSH1 0x40 MLOAD DUP2 PUSH4 0xFFFFFFFF AND PUSH1 0xE0 SHL DUP2 MSTORE PUSH1 0x4 ADD PUSH1 0x20 PUSH1 0x40 MLOAD DUP1 DUP4 SUB DUP2 DUP7 DUP1 EXTCODESIZE ISZERO DUP1 ISZERO PUSH2 0x1084 JUMPI PUSH1 0x0 DUP1 REVERT JUMPDEST POP GAS STATICCALL ISZERO DUP1 ISZERO PUSH2 0x1098 JUMPI RETURNDATASIZE PUSH1 0x0 DUP1 RETURNDATACOPY RETURNDATASIZE PUSH1 0x0 REVERT JUMPDEST POP POP POP POP PUSH1 0x40 MLOAD RETURNDATASIZE PUSH1 0x20 DUP2 LT ISZERO PUSH2 0x10AE JUMPI PUSH1 0x0 DUP1 REVERT JUMPDEST POP MLOAD SWAP1 POP PUSH1 0x1 PUSH1 0x1 PUSH1 0xA0 SHL SUB DUP1 DUP3 AND SWAP1 DUP9 AND EQ PUSH2 0x10FC JUMPI PUSH1 0x40 MLOAD PUSH3 0x461BCD PUSH1 0xE5 SHL DUP2 MSTORE PUSH1 0x4 ADD DUP1 DUP1 PUSH1 0x20 ADD DUP3 DUP2 SUB DUP3 MSTORE PUSH1 0x29 DUP2 MSTORE PUSH1 0x20 ADD DUP1 PUSH2 0x1395 PUSH1 0x29 SWAP2 CODECOPY PUSH1 0x40 ADD SWAP2 POP POP PUSH1 0x40 MLOAD DUP1 SWAP2 SUB SWAP1 REVERT JUMPDEST POP PUSH2 0x11BC JUMP JUMPDEST DUP3 PUSH2 0x11BC JUMPI PUSH1 0x0 DUP6 PUSH1 0x1 PUSH1 0x1 PUSH1 0xA0 SHL SUB AND PUSH4 0x1F1FCD51 PUSH1 0x40 MLOAD DUP2 PUSH4 0xFFFFFFFF AND PUSH1 0xE0 SHL DUP2 MSTORE PUSH1 0x4 ADD PUSH1 0x20 PUSH1 0x40 MLOAD DUP1 DUP4 SUB DUP2 DUP7 DUP1 EXTCODESIZE ISZERO DUP1 ISZERO PUSH2 0x1142 JUMPI PUSH1 0x0 DUP1 REVERT JUMPDEST POP GAS STATICCALL ISZERO DUP1 ISZERO PUSH2 0x1156 JUMPI RETURNDATASIZE PUSH1 0x0 DUP1 RETURNDATACOPY RETURNDATASIZE PUSH1 0x0 REVERT JUMPDEST POP POP POP POP PUSH1 0x40 MLOAD RETURNDATASIZE PUSH1 0x20 DUP2 LT ISZERO PUSH2 0x116C JUMPI PUSH1 0x0 DUP1 REVERT JUMPDEST POP MLOAD SWAP1 POP PUSH1 0x1 PUSH1 0x1 PUSH1 0xA0 SHL SUB DUP8 DUP2 AND SWAP1 DUP3 AND EQ PUSH2 0x11BA JUMPI PUSH1 0x40 MLOAD PUSH3 0x461BCD PUSH1 0xE5 SHL DUP2 MSTORE PUSH1 0x4 ADD DUP1 DUP1 PUSH1 0x20 ADD DUP3 DUP2 SUB DUP3 MSTORE PUSH1 0x25 DUP2 MSTORE PUSH1 0x20 ADD DUP1 PUSH2 0x1370 PUSH1 0x25 SWAP2 CODECOPY PUSH1 0x40 ADD SWAP2 POP POP PUSH1 0x40 MLOAD DUP1 SWAP2 SUB SWAP1 REVERT JUMPDEST POP JUMPDEST POP POP SWAP2 SWAP4 SWAP6 SWAP1 SWAP3 SWAP5 POP JUMP JUMPDEST PUSH2 0x11D8 PUSH1 0x4 DUP3 PUSH4 0xFFFFFFFF PUSH2 0x12F1 AND JUMP JUMPDEST PUSH2 0x11ED JUMPI PUSH2 0x5D8 PUSH1 0x4 DUP3 PUSH4 0xFFFFFFFF PUSH2 0x130F AND JUMP JUMPDEST POP JUMP JUMPDEST PUSH1 0x1 ADD SLOAD SWAP1 JUMP JUMPDEST PUSH1 0x0 DUP3 PUSH1 0x1 ADD DUP3 DUP2 SLOAD DUP2 LT PUSH2 0x1208 JUMPI INVALID JUMPDEST PUSH1 0x0 SWAP2 DUP3 MSTORE PUSH1 0x20 SWAP1 SWAP2 KECCAK256 ADD SLOAD PUSH1 0x1 PUSH1 0x1 PUSH1 0xA0 SHL SUB AND SWAP4 SWAP3 POP POP POP JUMP JUMPDEST PUSH2 0x1236 DUP2 PUSH1 0x1 PUSH1 0x1 PUSH1 0xA0 SHL SUB AND PUSH2 0x12B5 JUMP JUMPDEST PUSH2 0x1287 JUMPI PUSH1 0x40 DUP1 MLOAD PUSH3 0x461BCD PUSH1 0xE5 SHL DUP2 MSTORE PUSH1 0x20 PUSH1 0x4 DUP3 ADD MSTORE PUSH1 0x1E PUSH1 0x24 DUP3 ADD MSTORE PUSH32 0x577261707065645661756C74206973206E6F74206120636F6E74726163740000 PUSH1 0x44 DUP3 ADD MSTORE SWAP1 MLOAD SWAP1 DUP2 SWAP1 SUB PUSH1 0x64 ADD SWAP1 REVERT JUMPDEST PUSH1 0x1 PUSH1 0x1 PUSH1 0xA0 SHL SUB SWAP2 DUP3 AND PUSH1 0x0 SWAP1 DUP2 MSTORE PUSH1 0x6 PUSH1 0x20 MSTORE PUSH1 0x40 SWAP1 KECCAK256 DUP1 SLOAD PUSH1 0x1 PUSH1 0x1 PUSH1 0xA0 SHL SUB NOT AND SWAP2 SWAP1 SWAP3 AND OR SWAP1 SSTORE JUMP JUMPDEST PUSH1 0x0 DUP2 EXTCODEHASH PUSH32 0xC5D2460186F7233C927E7DB2DCC703C0E500B653CA82273B7BFAD8045D85A470 DUP2 DUP2 EQ DUP1 ISZERO SWAP1 PUSH2 0x12E9 JUMPI POP DUP2 ISZERO ISZERO JUMPDEST SWAP5 SWAP4 POP POP POP POP JUMP JUMPDEST PUSH1 0x1 PUSH1 0x1 PUSH1 0xA0 SHL SUB AND PUSH1 0x0 SWAP1 DUP2 MSTORE PUSH1 0x20 SWAP2 SWAP1 SWAP2 MSTORE PUSH1 0x40 SWAP1 KECCAK256 SLOAD ISZERO ISZERO SWAP1 JUMP JUMPDEST PUSH1 0x0 PUSH2 0x131B DUP4 DUP4 PUSH2 0x12F1 JUMP JUMPDEST PUSH2 0x1367 JUMPI POP PUSH1 0x1 DUP3 DUP2 ADD DUP1 SLOAD DUP1 DUP4 ADD DUP1 DUP4 SSTORE PUSH1 0x0 SWAP3 DUP4 MSTORE PUSH1 0x20 DUP1 DUP5 KECCAK256 SWAP1 SWAP3 ADD DUP1 SLOAD PUSH1 0x1 PUSH1 0x1 PUSH1 0xA0 SHL SUB NOT AND PUSH1 0x1 PUSH1 0x1 PUSH1 0xA0 SHL SUB DUP8 AND SWAP1 DUP2 OR SWAP1 SWAP2 SSTORE DUP4 MSTORE SWAP1 DUP6 SWAP1 MSTORE PUSH1 0x40 SWAP1 SWAP2 KECCAK256 SSTORE PUSH2 0xA99 JUMP JUMPDEST POP PUSH1 0x0 PUSH2 0xA99 JUMP INVALID MSTORE8 PUSH21 0x72617465677920746F6B656E206164647265737320 PUSH5 0x6F6573206E PUSH16 0x74206D61746368577261707065645661 PUSH22 0x6C7420746F6B656E206164647265737320646F657320 PUSH15 0x6F74206D617463684F6E6C79207065 PUSH15 0x64696E67476F7665726E616E636520 PUSH4 0x616E2063 PUSH2 0x6C6C KECCAK256 PUSH21 0x6869732066756E6374696F6E2E436F6E74726F6C6C PUSH6 0x72207661756C PUSH21 0x206164647265737320646F6573206E6F74206D6174 PUSH4 0x684F6E6C PUSH26 0x20676F7665726E616E63652063616E2063616C6C207468697320 PUSH7 0x756E6374696F6E 0x2E LOG2 PUSH6 0x627A7A723158 KECCAK256 PUSH5 0x34CE78D405 0xDE PUSH28 0x8735F850F17827E4F2939668CD6AC71437038FF89B88BEC764736F6C PUSH4 0x43000511 STOP ORIGIN ",
  "sha1": "c5ddb93fc93c8b48f1e0bd7bc74fdab645fbb592",
  "source": "// SPDX-License-Identifier: MIT\n\npragma solidity ^0.5.17;\n\nimport \"@openzeppelinV2/contracts/math/SafeMath.sol\";\nimport \"@openzeppelinV2/contracts/utils/Address.sol\";\nimport \"@openzeppelinV2/contracts/utils/EnumerableSet.sol\";\n\nimport \"../../interfaces/yearn/IController.sol\";\nimport \"../../interfaces/yearn/IStrategy.sol\";\nimport \"../../interfaces/yearn/IVault.sol\";\nimport \"../../interfaces/yearn/IWrappedVault.sol\";\n\ncontract YRegistry {\n    using Address for address;\n    using SafeMath for uint256;\n    using EnumerableSet for EnumerableSet.AddressSet;\n\n    address public governance;\n    address public pendingGovernance;\n\n    EnumerableSet.AddressSet private vaults;\n    EnumerableSet.AddressSet private controllers;\n\n    mapping(address => address) private wrappedVaults;\n\n    mapping(address => bool) public isDelegatedVault;\n\n    constructor(address _governance) public {\n        require(_governance != address(0), \"Missing Governance\");\n        governance = _governance;\n    }\n\n    function getName() external pure returns (string memory) {\n        return \"YRegistry\";\n    }\n\n    function addVault(address _vault) public onlyGovernance {\n        setVault(_vault);\n\n        (address controller, , , , ) = getVaultData(_vault);\n\n        setController(controller);\n    }\n\n    function addWrappedVault(address _vault) public onlyGovernance {\n        setVault(_vault);\n        address wrappedVault = IWrappedVault(_vault).vault();\n        setWrappedVault(_vault, wrappedVault);\n\n        (address controller, , , , ) = getVaultData(_vault);\n\n        // Adds to controllers array\n        setController(controller);\n        // TODO Add and track tokens and strategies? [historical]\n        // (current ones can be obtained via getVaults + getVaultInfo)\n    }\n\n    function addDelegatedVault(address _vault) public onlyGovernance {\n        setVault(_vault);\n        setDelegatedVault(_vault);\n\n        (address controller, , , , ) = getVaultData(_vault);\n\n        // Adds to controllers array\n        setController(controller);\n        // TODO Add and track tokens and strategies? [historical]\n        // (current ones can be obtained via getVaults + getVaultInfo)\n    }\n\n    function setVault(address _vault) internal {\n        require(_vault.isContract(), \"Vault is not a contract\");\n        // Checks if vault is already on the array\n        require(!vaults.contains(_vault), \"Vault already exists\");\n        // Adds unique _vault to vaults array\n        vaults.add(_vault);\n    }\n\n    function setWrappedVault(address _vault, address _wrappedVault) internal {\n        require(_wrappedVault.isContract(), \"WrappedVault is not a contract\");\n        wrappedVaults[_vault] = _wrappedVault;\n    }\n\n    function setDelegatedVault(address _vault) internal {\n        // TODO Is there any way to check if a vault is delegated\n        isDelegatedVault[_vault] = true;\n    }\n\n    function setController(address _controller) internal {\n        // Adds Controller to controllers array\n        if (!controllers.contains(_controller)) {\n            controllers.add(_controller);\n        }\n    }\n\n    function getVaultData(address _vault)\n        internal\n        view\n        returns (\n            address controller,\n            address token,\n            address strategy,\n            bool isWrapped,\n            bool isDelegated\n        )\n    {\n        address vault = _vault;\n        isWrapped = wrappedVaults[_vault] != address(0);\n        if (isWrapped) {\n            vault = wrappedVaults[_vault];\n        }\n        isDelegated = isDelegatedVault[vault];\n\n        // Get values from controller\n        controller = IVault(vault).controller();\n        if (isWrapped && IVault(vault).underlying() != address(0)) {\n            token = IVault(_vault).token(); // Use non-wrapped vault\n        } else {\n            token = IVault(vault).token();\n        }\n\n        if (isDelegated) {\n            strategy = IController(controller).strategies(vault);\n        } else {\n            strategy = IController(controller).strategies(token);\n        }\n\n        // Check if vault is set on controller for token\n        address controllerVault = address(0);\n        if (isDelegated) {\n            controllerVault = IController(controller).vaults(strategy);\n        } else {\n            controllerVault = IController(controller).vaults(token);\n        }\n        require(controllerVault == vault, \"Controller vault address does not match\"); // Might happen on Proxy Vaults\n\n        // Check if strategy has the same token as vault\n        if (isWrapped) {\n            address underlying = IVault(vault).underlying();\n            require(underlying == token, \"WrappedVault token address does not match\"); // Might happen?\n        } else if (!isDelegated) {\n            address strategyToken = IStrategy(strategy).want();\n            require(token == strategyToken, \"Strategy token address does not match\"); // Might happen?\n        }\n\n        return (controller, token, strategy, isWrapped, isDelegated);\n    }\n\n    // Vaults getters\n    function getVault(uint256 index) external view returns (address vault) {\n        return vaults.get(index);\n    }\n\n    function getVaultsLength() external view returns (uint256) {\n        return vaults.length();\n    }\n\n    function getVaults() external view returns (address[] memory) {\n        address[] memory vaultsArray = new address[](vaults.length());\n        for (uint256 i = 0; i < vaults.length(); i++) {\n            vaultsArray[i] = vaults.get(i);\n        }\n        return vaultsArray;\n    }\n\n    function getVaultInfo(address _vault)\n        external\n        view\n        returns (\n            address controller,\n            address token,\n            address strategy,\n            bool isWrapped,\n            bool isDelegated\n        )\n    {\n        (controller, token, strategy, isWrapped, isDelegated) = getVaultData(_vault);\n        return (controller, token, strategy, isWrapped, isDelegated);\n    }\n\n    function getVaultsInfo()\n        external\n        view\n        returns (\n            address[] memory controllerArray,\n            address[] memory tokenArray,\n            address[] memory strategyArray,\n            bool[] memory isWrappedArray,\n            bool[] memory isDelegatedArray\n        )\n    {\n        controllerArray = new address[](vaults.length());\n        tokenArray = new address[](vaults.length());\n        strategyArray = new address[](vaults.length());\n        isWrappedArray = new bool[](vaults.length());\n        isDelegatedArray = new bool[](vaults.length());\n\n        for (uint256 i = 0; i < vaults.length(); i++) {\n            (address _controller, address _token, address _strategy, bool _isWrapped, bool _isDelegated) = getVaultData(vaults.get(i));\n            controllerArray[i] = _controller;\n            tokenArray[i] = _token;\n            strategyArray[i] = _strategy;\n            isWrappedArray[i] = _isWrapped;\n            isDelegatedArray[i] = _isDelegated;\n        }\n    }\n\n    // Governance setters\n    function setPendingGovernance(address _pendingGovernance) external onlyGovernance {\n        pendingGovernance = _pendingGovernance;\n    }\n\n    function acceptGovernance() external onlyPendingGovernance {\n        governance = msg.sender;\n    }\n\n    modifier onlyGovernance {\n        require(msg.sender == governance, \"Only governance can call this function.\");\n        _;\n    }\n    modifier onlyPendingGovernance {\n        require(msg.sender == pendingGovernance, \"Only pendingGovernance can call this function.\");\n        _;\n    }\n}\n",
  "sourcePath": "contracts/registries/YRegistry.sol",
  "type": "contract"
}